:030000000202CD2C
:0C02CD00787FE4F6D8FD7581260200E37E
:0A027000C2A58F80D2A77F057E0093
:10027A00EF1FAC0670011E4C600A7D027CEFDCFEAB
:04028A00DDFC80EC2B
:01028E00224D
:0802D9007F027EEFDEFEDFFC78
:0102E10022FA
:0E02BF00C2A6120270C2A77F057E0002027A5C
:10024E00CFCDCFCECCCE1200427C007D0A12004222
:04025E00ED2430FF5C
:0E026200D2A6120270C2A77F057E0002027AA9
:10028F00AE07EE64017004ED14800AAF06EF64024E
:0C029F007009ED243F4480FF1202BF22D2
:1002AB007F381202BF7F0C1202BF7F061202BF7F84
:0402BB00010202BF7B
:0802E20012028FAF0302026259
:0601DE008B1F8A2089211D
:1001E40012028FE4F522AB1FAA20A9218522827571
:0F01F4008300120003FF6007120262052280E7FA
:0102030022D8
:0A01AD00EF24FFFDEE34FFFC7F0A93
:0801B7008E238F248C258D2678
:1001BF007F017E00E4FBEBC39526E5256480F87490
:0E01CF008098500AAC23AD241200300B80E85B
:0101DD0022FF
:04022A008A118B1298
:10022E0012028FAA13EAFF7E00D39400748094808A
:0F023E00400D1201ADAC11AD1212024E1A80E646
:01024D00228E
:10012F0012028FC3EA64809480400B7F2B1202620D
:10013F008A0D8B0E800E7F2D120262C3E49BF50E8B
:10014F00E49AF50DAA0CEAFF7E00D3940074809414
:10015F0080400D1201ADAC0DAD0E12024E1A80E6AD
:01016F00226D
:040097008A168B1723
:10009B0012028FAA18EAFF7E00D39400748094801A
:1000AB004035EF24FFFDEE34FFFC7F101201B7AC9F
:1000BB0016AD17CFCDCFCECCCE120042EF540FFEE4
:1000CB00C3940A74809480EE500424308002243749
:0700DB00FF1202621A80BE51
:0100E20022FB
:040170008A1B8B1C3F
:1001740012028FAA1DEAFF7E00D39400748094803B
:100184004026EF24FFFDEE34FFFC7F021201B7ACE2
:100194001BAD1CCFCDCFCECCCE120042EF540124E8
:0801A40030FF1202621A80CD47
:0101AC002230
:1002040028205E205F205E20290028205E204F20C9
:100214005E202900544B5320464F522057415443EB
:0602240048494E4721008D
:1000E3001202ABE4F51EC3E51E94047480948050A1
:1000F3002C7BFF7A0279047D047F011201DE7FFAF3
:100103007E0012027A7BFF7A02790E7D047F011250
:1001130001DE7FFA7E0012027A051E80C97BFF7A18
:0C0123000279187D027F011201DE80FECF
:10000300BB010CE58229F582E5833AF583E02250B2
:1000130006E92582F8E622BBFE06E92582F8E222FC
:0D002300E58229F582E5833AF583E4932216
:10003000EF8DF0A4A8F0CF8CF0A428CE8DF0A42EE4
:02004000FE229E
:10004200BC000BBE0029EF8DF084FFADF022E4CCA2
:10005200F875F008EF2FFFEE33FEEC33FCEE9DEC6B
:10006200984005FCEE9DFE0FD5F0E9E4CEFD22EDB1
:10007200F8F5F0EE8420D21CFEADF075F008EF2FFB
:10008200FFED33FD4007985006D5F0F222C398FDEC
:050092000FD5F0EA2289
:00000001FF
